:04000000B7EF7DF0E9
:10FB10001F0E356E000E366ECEEC7DF01200800F9B
:10FB2000810F820F830F840F890F8A0F8B0F8C0F29
:10FB30008D0F920F930F940F950F960F020A121AC2
:10FB400000030B1388EC7DF0240E316E000E326E34
:10FB500001EC7EF0250E316E000E326E01EC7EF06F
:10FB6000260E316E000E326E01EC7EF012001E0E7B
:10FB7000F66EFB0EF76E000EF86E00EE01F010EE62
:10FB800026F00900F5CFEEFFE550E150FAE13B6ABF
:10FB90003A6A000EF86E000137EF7EF035503610ED
:10FBA000D8A4D5EF7DF0D7EF7DF0DBEF7DF0000E30
:10FBB000376EFFEF7DF035C031F036C032F001EC2A
:10FBC0007EF0376E010E3524316E000E3620326E17
:10FBD00001EC7EF0376E020E3524316E000E3620B9
:10FBE000326E01EC7EF0376E030E3524316E000E5E
:10FBF0003620326E01EC7EF0376E010E376E3750D4
:10FC0000120031503210D8B408EF7EF00AEF7EF0C7
:10FC10001BEF7EF031C0D9FF32C0DAFFDF30E832AF
:10FC2000E832070B336E070E336419EF7EF01BEFDB
:10FC30007EF01FEF7EF0000E346E35EF7EF031C0A7
:10FC400027F032C028F05EEC7FF0346E31C027F030
:10FC500032C028F031C0D9FF32C0DAFF000EDFBE5B
:10FC6000010E296EC8EC7EF0346E34501200A2EC06
:10FC70007DF0000E3C6E3CC03AF01F0E316E000E5F
:10FC8000326E3CC033F07CEC7EF03B6E3B04D8A47B
:10FC90004CEF7EF04EEF7EF064EF7EF0240E3A24BF
:10FCA000276E286A000E2822010E296EC8EC7EF00D
:10FCB0003B6E100E396E390E386E0E0EE82EFED7E2
:10FCC000382EFCD7392EFAD7240E3A24276E286A0C
:10FCD000000E2822000E296EC8EC7EF03B6E3C2AF6
:10FCE000020E3C6476EF7EF078EF7EF03BEF7EF024
:10FCF00039EF7EF000EF00F031503210D8B483EFCE
:10FD00007EF085EF7EF08DEF7EF0090E33648BEF91
:10FD10007EF08DEF7EF091EF7EF0000E346EC6EF38
:10FD20007EF031C027F032C028F03350010B296E2D
:10FD3000C8EC7EF0346E010E3124276E000E3220A6
:10FD4000286ED8903330010B296EC8EC7EF0346EEB
:10FD5000020E3124276E000E3220286E3340E84216
:10FD60003F0B010B296EC8EC7EF0346E030E31247C
:10FD7000276E000E3220286E3338E8461F0B010B29
:10FD8000296EC8EC7EF0346E010E346E34501200D1
:10FD9000010E306E27502810D8B4D1EF7EF0D3EF8B
:10FDA0007EF0E4EF7EF027C0D9FF28C0DAFFDF3015
:10FDB000E832E832070B2A6E070E2A64E2EF7EF083
:10FDC000E4EF7EF047EF7FF0000E306E5CEF7FF0E7
:10FDD00027C0D9FF28C0DAFFDF30E832E832070B4E
:10FDE0002A6E010E2B6E2A2AF8EF7EF0D8902B3661
:10FDF0002A2EF6EF7EF02B50FF0A2C6E27C0D9FF7B
:10FE000028C0DAFFDF50070B2D6E2D50020D0B0EB0
:10FE1000F324D96E000EF420DA6EDECF2EF0DDCFA3
:10FE20002FF02EC0D9FF2FC0DAFF2C50DF165CEF69
:10FE30007FF027C0D9FF28C0DAFFDF30E832E83290
:10FE4000070B2A6E010E2B6E2A2A29EF7FF0D8901D
:10FE50002B362A2E27EF7FF027C0D9FF28C0DAFFE4
:10FE6000DF50070B2C6E2C50020D0B0EF324D96EB5
:10FE7000000EF420DA6EDECF2DF0DDCF2EF02DC097
:10FE8000D9FF2EC0DAFF2B50DF125CEF7FF0295034
:10FE90002A6E2B6A2B50000AD8B451EF7FF0E4EFA2
:10FEA0007EF02A50000AD8B4E8EF7EF0010AD8B4F8
:10FEB00019EF7FF0E4EF7EF030501200010E2F6E4C
:10FEC00027502810D8B467EF7FF069EF7FF07AEF02
:10FED0007FF027C0D9FF28C0DAFFDF30E832E832F0
:10FEE000070B296E070E296478EF7FF07AEF7FF019
:10FEF000DDEF7FF0000E2F6EFEEF7FF027C0D9FF01
:10FF000028C0DAFFDF30E832E832070B296E010E35
:10FF10002A6E292A8EEF7FF0D8902A36292E8CEF70
:10FF20007FF02A50FF0A2B6E27C0D9FF28C0DAFFC6
:10FF3000DF50070B2C6E2C50020D150EF324D96EDA
:10FF4000000EF420DA6EDECF2DF0DDCF2EF02DC0C6
:10FF5000D9FF2EC0DAFF2B50DF16FEEF7FF027C04F
:10FF6000D9FF28C0DAFFDF30E832E832070B296E0C
:10FF7000010E2A6E292ABFEF7FF0D8902A36292E4B
:10FF8000BDEF7FF027C0D9FF28C0DAFFDF50070B95
:10FF90002B6E2B50020D150EF324D96E000EF4209B
:10FFA000DA6EDECF2CF0DDCF2DF02CC0D9FF2DC0C6
:10FFB000DAFF2A50DF12FEEF7FF027C0D9FF28C0FA
:10FFC000DAFFDFBCE6EF7FF0E9EF7FF0010EEAEF4A
:10FFD0007FF0000E296E2A6A2A50000AD8B4F3EF87
:10FFE0007FF07AEF7FF02950000AD8B47EEF7FF0DF
:10FFF000010AD8B4AFEF7FF07AEF7FF02F501200F4
:020000040020DA
:08000000FFFFFFFFFFFFFFFF00
:020000040030CA
:0E000000FF071F1FFF8385FF0FC00FE00F409B
:00000001FF
